:400000000080002011000000090100000901000080B500AF024A034B1B68136000F0A6F8BC760040FA46004010B5054C237833B9044B13B10448AFF300800123237010BD65
:400040008881FF1F000000000C240000084B10B51BB108480849AFF300800848036803B910BD074B002BFBD0BDE81040184700BF000000000C2400008C81FF1F0881FF1FE1
:4000800000000000B0B590B000AF00F0D7FE00F087FC00F09DFC4FF00003BB63012000F0A7FC0346002B29D000F0CAFC0346184601F098FC0346FB63F86B4FF0000101F08D
:4000C00033FD0346002B02D04FF00003FB63F86B01F07AFB04460D463B1D1846084922462B4601F089FD3B1D184600F01FFF054800F01CFF4FF4967001F056F9CEE700BF14
:40010000102400001824000080B500AF01F034FD03461B680C2B00D1FEE7FEE780B584B000AF78600F4B1A687B6813441A460E4BD31A802B09DC0B4B1B68FB60094B1A6865
:400140007B681344074A136007E001F015FD02460C2313604FF0FF33FB60FB6818461037BD4680BD0C81FF1FC881FF1F80B586B000AF224B7B61224B3B61204B7B6135E0BF
:400180003B691B68FB603B695B68BB603B699B683B6000237B600CE0FB681A68BB681A60BB680433BB60FB680433FB607B6804337B607A683B689A42EED13B69DB683B608C
:4001C00000237B6008E0BB6800221A60BB680433BB607B6804337B607A683B689A42F2D13B6910333B617B69013B7B617B69002BC6D101F0C7FCFFF745FFFEE701000000D3
:40020000BC24000080B582B000AF174B174A1A60174A174B1B6843F40073136000237B600FE07B68032B04D8124A7B6852F8233000E0114B11497A6841F822307B68013358
:400240007B607B682F2BECD90D4B1B78DAB20D4B1A700D4B094A1A6000F090F90B4B00221A600837BD4680BD0CED00E00004FA0514ED00E000000000090100000080FF1FD4
:40028000BC7600400481FF1F08ED00E00081FF1F80B582B000AF78603960786800213A6801F0A1FC0837BD4680BD00BF80B584B000AFF860B9607A60F868B9687A6801F008
:4002C00087FC1037BD4680BD80B483B000AF0346FB71FEE780B487B000AF7860396000233B6100237B6127E07B699B007A6813441B68BB60BB68FB73BB6823F0FF03BB60BA
:4003000014E03B695B003A6813441B781A46BB68134419463B695B003A6813445B780B703B6901333B61FB7B013BFB73FB7B002BE7D17B6901337B617B69122BD4D91C37BD
:40034000BD465DF8047B704780B582B000AF3F4B00221A803E4B50221A703E4B19221A803D4B18221A703D483D490422FFF79EFF3C4B02221A704FF0402308221A703A4B90
:4003800003221A70394B3A4A1278D2B21A70394B08221A80384B41F251221A800023FB7019237B6014E0FB785B00DAB2334B1B78DBB203F00103DBB21343DBB203F00303F2
:4003C000FB704FF4F07001F06FF87B68013B7B607B68002B02D0FB78032BE4D17B68002B02D10320FFF770FF254B4FF480721A80234B07221A70234B00221A70224B4822AD
:400400001A701F4B00221A70204B02221A70204B04221A701F4A1F4B1B78DBB243F00303DBB213701C4A1C4B1B78DBB243F00103DBB21370194A194B1B78DBB263F07F03BC
:40044000DBB213700837BD4680BD00BF8040004082400040844000408640004000410040640300480043004000420040A14600400801004922420040204200402542004087
:40048000044000400640004008400040014000400B400040A2430040A1430040A043004080B483B000AF0E4B1B78FB710D4AFB7903F00703DBB213700B4AFB791B09DBB272
:4004C00013700A4B08221A70094B08221A70094B44221A700C37BD465DF8047B704700BFCF0100496E5800406F5800402D510040005B00407658004080B483B000AF0346A8
:40050000FB71FB79012B0ED8FB79094A52F82330FA79074951F822201178FA790548825C0A43D2B21A700C37BD465DF8047B70471C2400002424000080B483B000AF0346DD
:40054000FB71FB79012B10D8FB790A4A52F82330FA79084951F822201178FA790648825CD243D2B20A40D2B21A700C37BD465DF8047B70471C2400002424000080B586B0F6
:4005800000AF72B64E4A4E4B1B78DBB243F00403DBB213700023FB7513E0FA7D13465B0013445B00474A13443B613B691A683B699B889BB210461946FFF76AFEFB7D0133E9
:4005C000FB75FB7D062BE8D90023FB751CE0FA7D13469B0013445B003B4A1344FB60FB681B68BB60FB685B687B60FB681A7A5B7A1B0213437B807B88B86879681A46FFF7A8
:4006000055FEFB7D0133FB75FB7D002BDFD04FF090402E49FFF75EFE2D4B0A221A702D4A2C4B1B78DBB243F00203DBB213702A4A294B1B78DBB243F00203DBB21370274ADC
:40064000264B1B78DBB243F04003DBB21370244A234B1B78DBB243F01003DBB21370214821490822FFF722FE204821490A22FFF71DFE204820490822FFF718FE1F48204918
:400680000822FFF713FE1F4A1E4B1B78DBB243F00803DBB213701C4B60221A70FFF754FE194B80221A70194B01221A70FFF7F8FE17480A490E22FFF7F9FD1837BD4680BD24
:4006C000E846004028240000542400004C000048835800400350014013500140A0430040C24300400251004040030048C05100404803004812510040540300482251004082
:400700005C030048224300400048004004000840B043004080B582B002AF324B01221A70314B00221A70102000F008FD102000F0EBFD1D20072100F093FE2C4B04221A70C2
:400740002B4B00221A702B4B00221A702A4A2A4B1B78DBB243F01803DBB21370274B00221A70274B00221A70264B00221A70264B0A221A70254B00221A70254B00221A7016
:40078000244B5B221A70244B5E221A70234B00221A70234B14221A7001230093012049F2DA014FF40042102300F050FA1D4A0D4B1B78DBB2013B1C499B000B449B78137022
:4007C0001A4A084B1B78DBB2013B174931F823301380044B1B78DBB2184600F085F9BD4680BD00BF1081FF1FA481FF1F96580040975800409E580040075B004093580040EB
:40080000885B0040895B004080580040815800408358004088580040895800408D580040014E00400E4E0040A881FF1F0C4E004080B582B000AF00F056FE0346FB71494B10
:400840001B78BB71484A484B1B78DBB243F00103DBB21370444A444B1B78DBB243F01003DBB21370414A414B1B78DBB243F00103DBB213703D4A3D4B1B78DBB243F01003A7
:40088000DBB213703A4A3A4B1B78DBB243F00203DBB21370374A374B1B78DBB243F00203DBB21370344A344B1B78DBB243F00303DBB21370BB79012B07D1304A2F4B1B7827
:4008C000DBB243F00803DBB21370032000F08EFD274A274B1B78DBB223F00203DBB21370244A244B1B78DBB223F00203DBB21370234A234B1B78DBB243F00603DBB21370E8
:40090000204B7A221A70204A1F4B1B78DBB243F00103DBB213701D4A1C4B1B78DBB243F00103DBB213701A4A194B1B78DBB243F00103DBB21370174A164B1B78DBB243F072
:400940000103DBB21370144B4FF000521A60134B4FF000521A60FB79184600F0C8FD0837BD4680BD1081FF1FAA430040BA430040F8460040F9460040915800409258004021
:400980007758004082580040A1430040B1430040A2430040B243004080E200E000E100E080B500AF084B1B78002B09D1074B1B78DBB2002B01D1FFF7ADFE034B01221A707F
:4009C000FFF736FF80BD00BFA681FF1FA781FF1F80B400AF054A054B1B78DBB243F00103DBB21370BD465DF8047B7047004E004080B485B000AF0346FB710E4B1B78DBB2FA
:400A0000002B03D00C4B1B78FB7305E00B4B1B78DBB203F00103FB73FB7B012B02D0FB79002BEAD0FB7B18461437BD465DF8047B704700BFA581FF1FA481FF1F014E004051
:400A400080B483B000AF224B1B78DBB203F00303FB70FB78012B0BD81E4B1B889BB27B607B681B041C4A128892B213437B6020E0FB78022B12D1174B1B889BB27B607B68AF
:400A80001B04154A1278D2B213437B60134B1B78DBB21B027A6813437B600AE00E4B1B889BB27B600B4B1B889BB21B047A6813437B600B4B1B78DBB2002B02D0094B00225C
:400AC0001A707B6818460C37BD465DF8047B7047144E0040124E0040104E0040114E0040A581FF1FA481FF1F80B582B000AF0346FB71384B00221A70FB79012B66D1364B02
:400B000038221A70354B04221A70354B07221A70344B00221A70344B00221A70334B3F221A70334B1B221A70324B71221A70324B00221A70314B01221A70314B50221A7006
:400B4000304B27221A70304B2C221A702F4B00221A702F4B55221A702E4B5A221A702E4B05221A702D4B01221A702D4B11221A702C4B19221A702C4B97221A704C2000F0DE
:400B80001BF92A4B58221A70294B00221A70294B05221A70284B01221A70284B00221A70274B0A221A70012000F0F8F9254B4FF4FA421A600820012100F004FA25200121F2
:400BC00000F0E6FA1D20204900F022FC0837BD4680BD00BFA581FF1F004E0040024E0040034E0040044E0040054E0040064E0040084E0040094E00400A4E0040144E004020
:400C0000845800408558004086580040875800408A5800408B5800408C5800408E5800408F580040905800409158004094580040955800409A5800409B5800409C58004045
:400C40009D580040B881FF1F310E000090B587B000AF0446084611461A462346FB710346BB800B467B801346BB7197F82830002B00F08A8097F82830012B00F28580FB797B
:400C8000013B092B4AD801A252F823F0B50C00001D0D00001D0D0000B50C00001D0D00001D0D0000CF0C0000E90C00001D0D0000030D0000BB790F2B04D9364B1B78DBB282
:400CC000FB752EE0344B1B78DBB2FB7529E0BB790F2B04D9314B1B78DBB2FB7521E0304B1B78DBB2FB751CE0BB790F2B04D92D4B1B78DBB2FB7514E02B4B1B78DBB2FB75B2
:400D00000FE0BB790F2B04D9284B1B78DBB2FB7507E0274B1B78DBB2FB7502E00023FB7500BFBA8897F917305B0113443B617B883A6902FB03F3FB60FB68DB0BBB82BB7943
:400D40000D2B11D8BB8ABA79C2F10E021341BB8297F82830013BBA790132D1B2154A9B0013440A469A7007E097F82830013B114A9B0013440F229A7097F82830013B0D49C4
:400D8000BA8A21F8232002E0002000F001FB1C37BD4690BD180100491C010049190100491D0100491A0100491E0100491B0100491F010049A881FF1F80B584B000AF03462E
:400DC000FB7100F090FB0346FB73164A154B1B78DBB243F00303DBB21370134A124B1B78DBB243F00303DBB21370104AFB791370032000F0FBFA0B4A0A4B1B78DBB223F0D3
:400E00000303DBB21370084A074B1B78DBB223F00303DBB21370FB7B184600F068FB1037BD4680BDF8460040F94600409258004080B400AFBD465DF8047B704780B500AF85
:400E4000054B1B78002B04D100F008F8024B01221A7000F023F880BDAC81FF1F80B400AF094B72221A70094B20221A70084B06221A70084B47221A70074B00221A70BD4651
:400E80005DF8047B704700BF8A6500408B65004029650040396500408865004080B582B000AF00F020FB0346FB71104A0F4B1B78DBB243F02003DBB213700D4A0C4B1B785F
:400EC000DBB243F01003DBB213700A4A094B1B78DBB243F01003DBB2137000F03FFAFB79184600F004FB0837BD4680BD9A6500409B6500409865004080B483B000AF03466D
:400F0000FB7100BF074B1B78DBB203F00403002BF8D1054AFB7913700C37BD465DF8047B704700BF686500404865004080B584B000AF78600023FB810B4B1B78002B10D0D3
:400F400009E0FB897A6813441B781846FFF7D4FFFB890133FB81FB897A6813441B78002BEFD11037BD4680BDAC81FF1F80B582B000AF0023FB7106E0FB791846FFF7DCFAA7
:400F8000FB790133FB71FB79012BF5D9024BFF221A700837BD4680BD1181FF1F80B582B000AF0346FB71FFF7E1FFFB791846FFF7A3FA034AFB7913700837BD4680BD00BF00
:400FC0001181FF1F80B584B000AF03460A46FB8013467B7100F0CCF80346FB7300F0A2F80346BB81FA88BB899A4200F08780454B1B78DBB203F00103FB72FB7B002B20D117
:40100000BB89002B02D0FB88002B1AD1BB89002B0BD13D4AFB8813803C4A3C4B1B78DBB223F04003DBB2137068E0384A374B1B78DBB243F04003DBB21370334AFB881380D6
:401040005CE0FB7A002B33D0314B00221A70314B01221A70304B00221A70304A2F4B1B78DBB203F07F03DBB21370284B1B78DBB203F00803002B02D0FB88002B18D1284AE9
:40108000BB891380224B07221A7000BF204B1B78DBB203F00103002BF8D11A4A194B1B78DBB223F00103DBB21370194B00221A70144B1B78DBB203F00103002B13D0184AFF
:4010C000FB881380124A7B79002B01D0032300E00123137000BF0E4B1B78DBB203F00103002BF8D10AE0084AFB8813800549054B1B78DAB2FB7A1343DBB20B701037BD4692
:4011000080BD00BFA24300408040004082400040014000401040004014400040084000400240004080B400AF034B1B889BB21846BD465DF8047B70478040004080B483B069
:4011400000AF0346FB71094B084A1278D2B2D1B2FA7922F00702D2B20A43D2B2D2B21A700C37BD465DF8047B704700BF8240004080B400AF054B1B78DBB203F00703DBB274
:401180001846BD465DF8047B704700BF8240004080B584B000AF03460A46FB8013467B7100F0CCF80346FB7300F0A2F80346BB81FA88BB899A4200F08780454B1B78DBB24E
:4011C00003F00103FB72FB7B002B20D1BB89002B02D0FB88002B1AD1BB89002B0BD13D4AFB8813803C4A3C4B1B78DBB223F04003DBB2137068E0384A374B1B78DBB243F005
:401200004003DBB21370334AFB8813805CE0FB7A002B33D0314B00221A70314B01221A70304B00221A70304A2F4B1B78DBB203F07F03DBB21370284B1B78DBB203F0080347
:40124000002B02D0FB88002B18D1284ABB891380224B07221A7000BF204B1B78DBB203F00103002BF8D11A4A194B1B78DBB223F00103DBB21370194B00221A70144B1B782B
:40128000DBB203F00103002B13D0184AFB881380124A7B79002B01D0032300E00123137000BF0E4B1B78DBB203F00103002BF8D10AE0084AFB8813800549054B1B78DAB2F9
:4012C000FB7A1343DBB20B701037BD4680BD00BFA14300400041004002410040014000401440004010400040084000400240004080B400AF034B1B889BB21846BD465DF827
:40130000047B70470041004080B483B000AF0346FB71094B084A1278D2B2D1B2FA7922F00702D2B20A43D2B2D2B21A700C37BD465DF8047B704700BF0241004080B400AF0D
:40134000054B1B78DBB203F00703DBB21846BD465DF8047B704700BF0241004080B400AF094A094B1B78DBB243F00203DBB21370064A064B1B78DBB243F00203DBB213704A
:40138000BD465DF8047B7047A2430040B243004080B483B000AF0346FB7101BE0C37BD465DF8047B704700BF80B582B000AF786008E00C4B1B68184600F076F87B68A3F544
:4013C00000437B607B68B3F5004FF2D8064B1B687A6802FB03F3184600F066F80837BD4680BD00BF2081FF1F1881FF1F80B582B000AF0346FB80FB88044A127802FB03F3FA
:40140000184600F051F80837BD4680BD1C81FF1F80B584B000AF03463960FB710F4B1B68FB60FB791F2B02D90020FFF7B1FFFB7903F01F0310339B00FA6813441B68BB6020
:40144000FB7903F01F0310339B00FA6813443A681A60BB6818461037BD4680BD08ED00E080B582B000AF03460A46FB711346BB71BB79072B02D90020FFF78AFFFB791F2B15
:4014800002D90020FFF784FFFB7903F01F0303F1604303F56443BA795201D2B21A700837BD4680BD00000000142816D902B4012114381049097811F0C001890904B40E4A59
:4014C000515C04BC00BF00BF00BF8841FDD500BF00BF02BC704700BF00BF70F10400FCD570470B050709EFF3108072B6704780F31088704700480040E2140000AFF3008076
:4015000081F0004102E000BF83F0004330B54FEA41044FEA430594EA050F08BF90EA020F1FBF54EA000C55EA020C7FEA645C7FEA655C00F0E2804FEA5454D4EB5555B8BFFF
:401540006D420CDD2C4480EA020281EA030382EA000083EA010180EA020281EA0303362D88BF30BD11F0004F4FEA01314FF4801C4CEA113102D0404261EB410113F0004FED
:401580004FEA03334CEA133302D0524263EB430394EA050F00F0A780A4F10104D5F1200E0DDB02FA0EFC22FA05F2801841F1000103FA0EF2801843FA05F359410EE0A5F15B
:4015C00020050EF1200E012A03FA0EFC28BF4CF0020C43FA05F3C01851EBE37101F0004507D54FF0000EDCF1000C7EEB00006EEB0101B1F5801F1BD3B1F5001F0CD3490875
:401600005FEA30004FEA3C0C04F101044FEA445212F5800F80F09A80BCF1004F08BF5FEA500C50F1000041EB045141EA050130BD5FEA4C0C404141EB010111F4801FA4F1F6
:401640000104E9D191F0000F04BF01460020B1FA81F308BF2033A3F10B03B3F120020CDA0C3208DD02F1140CC2F10C0201FA0CF021FA02F10CE002F11402D8BFC2F1200C03
:4016800001FA02F120FA0CFCDCBF41EA0C019040E41AA2BF01EB0451294330BD6FEA04041F3C1CDA0C340EDC04F11404C4F1200220FA04F001FA02F340EA030021FA04F381
:4016C00045EA030130BDC4F10C04C4F1200220FA02F001FA04F340EA0300294630BD21FA04F0294630BD94F0000F83F4801306BF81F480110134013D4EE77FEA645C18BF2C
:401700007FEA655C29D094EA050F08BF90EA020F05D054EA000C04BF1946104630BD91EA030F1EBF0021002030BD5FEA545C05D14000494128BF41F0004130BD14F580041A
:401740003CBF01F5801130BD01F0004545F0FE4141F470014FF0000030BD7FEA645C1ABF194610467FEA655C1CBF0B46024650EA013406BF52EA033591EA030F41F400219E
:4017800030BD00BF90F0000F04BF0021704730B54FF4806404F132044FF000054FF0000150E700BF90F0000F04BF0021704730B54FF4806404F1320410F0004548BF404273
:4017C0004FF000013EE700BF42004FEAE2014FEA31014FEA02701FBF12F07F4393F07F4F81F06051704792F0000F14BF93F07F4F704730B54FF4607401F0004521F0004195
:4018000020E700BF50EA010208BF704730B54FF000050AE050EA010208BF704730B511F0004502D5404261EB41014FF4806404F132045FEA915C3FF4DCAE4FF003025FEA75
:40184000DC0C18BF03325FEADC0C18BF033202EBDC02C2F1200300FA03FC20FA02F001FA03FE40EA0E0021FA02F11444C1E600BF80F0004002E000BF81F0004142001FBF6E
:401880005FEA410392EA030F7FEA226C7FEA236C6AD04FEA1262D2EB1363C1BFD218414048404140B8BF5B42192B88BF704710F0004F40F4000020F07F4018BF404211F00E
:4018C000004F41F4000121F07F4118BF494292EA030F3FD0A2F1010241FA03FC10EB0C00C3F1200301FA03F100F0004302D5494260EB4000B0F5000F13D3B0F1807F06D3C3
:4019000040084FEA310102F10102FE2A51D2B1F1004F40EBC25008BF20F0010040EA03007047490040EB000010F4000FA2F10102EDD1B0FA80FCACF1080CB2EB0C0200FA72
:401940000CF0AABF00EBC25052421843BCBFD0401843704792F0000F81F4000106BF80F400000132013BB5E74FEA41037FEA226C18BF7FEA236C21D092EA030F04D092F016
:40198000000F08BF0846704790EA010F1CBF0020704712F07F4F04D1400028BF40F00040704712F100723CBF00F50000704700F0004343F0FE4040F4000070477FEA226285
:4019C00016BF08467FEA23630146420206BF5FEA412390EA010F40F4800070474FF0000304E000BF10F0004348BF40425FEA000C08BF704743F0964301464FF000001CE0D1
:401A000050EA010208BF70474FF000030AE000BF50EA010208BF704711F0004302D5404261EB41015FEA010C02BF84460146002043F0B64308BFA3F18053A3F50003BCFA27
:401A40008CF2083AA3EBC25310DB01FA02FC634400FA02FCC2F12002BCF1004F20FA02F243EB020008BF20F00100704702F1200201FA02FCC2F1200250EA4C0021FA02F26A
:401A800043EB020008BF20EADC7070474FF0FF3C06E000BF4FF0010C02E000BF4FF0010C4DF804CD4FEA40024FEA41037FEA226C18BF7FEA236C11D001B052EA530C18BFF2
:401AC00090EA010F58BFB2EB030088BFC81738BF6FEAE17018BF40F0010070477FEA226C02D15FEA402C05D17FEA236CE4D15FEA412CE1D05DF8040B704700BF84460846C4
:401B00006146FFE70FB5FFF7C9FF002848BF10F1000F0FBD4DF808EDFFF7F4FF0CBF012000205DF808FB00BF4DF808EDFFF7EAFF34BF012000205DF808FB00BF4DF808EDA7
:401B4000FFF7E0FF94BF012000205DF808FB00BF4DF808EDFFF7D2FF94BF012000205DF808FB00BF4DF808EDFFF7C8FF34BF012000205DF808FB00BF014B1868704700BFB5
:401B80008481FF1F0E4B70B51E460E4C0025E41AA410A54204D056F8253098470135F8E700F07AFC084B094C1E46E41AA4100025A54204D056F8253098470135F8E770BDD5
:401BC000A4240000A4240000A4240000AC24000010B5431E0A44914204D011F8014B03F8014FF8E710BD03460244934202D003F8011BFAE7704700000EB400B54FF4027144
:401C00009CB0ADF814106FF00041049107914FF6FF711DABADF81610084953F8042B02900690086802A9019300F064F8029B00221A701CB05DF804EB03B070478481FF1FA6
:401C40002DE9F0478E688246B3420C469046994640D38A8912F4906F3AD02568096902236F1A656905EB450595FBF3F57B1C4B449D4238BF1D4653050FD5294600F030FBD6
:401C8000064698B121693A46FFF7A2FFA38923F4906343F08003A38113E02A4600F076FB064670B95046216900F0D6FA0C23CAF80030A3894FF0FF3043F04003A381BDE8CB
:401CC000F08726613E4426604E466561ED1BA560B14500D24E4632462068414600F0A0FAA36800209B1BA36023681E442660BDE8F08700002DE9F0439DB003938B8906460B
:401D00001C060D4690460CD50B6953B9402100F0E7FA2860286110B90C233360CCE040236B610023099320238DF8293030238DF82A3043461C4613F8012B1AB9B4EB080997
:401D40000FD002E0252AF5D1F8E73046294642464B46FFF775FF013000F0A980099B4B4409932378002B00F0A28000234FF0FF3204930793059206938DF853301A9304F1B7
:401D800001084446DFF8489121784846052200F039FA08F10108049B30B1C9EB00000122824013430493ECE7D80644BF20228DF85320190744BF2B228DF8532022782A2A23
:401DC00002D0079923460EE0039A0134111D12680391002ABBBF524243F0020307920792B8BF04930AE01C4622780133303A092A03D80A2000FB0121F5E7079123782E2B1B
:401E00001AD163782A2B0AD1039B02341A1D1B680392002BB8BF4FF0FF3305930CE0611C00220C4623780131303B092B03D80A2000FB0232F5E70592DFF8988021784046E0
:401E4000032200F0DFF938B1049AC8EB00004023834013430493013421781A48062204F101088DF8281000F0CDF988B1164B33B9039B073323F007030833039313E003AB72
:401E80000093304604A92A46104BAFF3008007E003AB0093304604A92A460C4B00F092F8421C074603D0099B3B44099341E7AB895B0601D4099801E04FF0FF301DB0BDE8C2
:401EC000F08300BF6C24000000000000411C000062240000682400002DE9F84391461F468A680B6906469342B8BF1346C9F8003091F843200C46DDF8208012B10133C9F871
:401F000000302368990642BFD9F800300233C9F80030256815F006051CD094F843302268003318BF012392061FD5E118302081F843005A1C94F845102244023382F843108F
:401F400013E03046394604F119020123C047013007D00135E368D9F800209B1A9D42F0DBDBE74FF0FF30BDE8F8833046394604F14302C0470130F4D02268D9F80050E368F4
:401F800002F00602042A08BF5D1B2269A3680CBF25EAE57500259342C4BF9B1AED184FF00009A9450ADA3046394604F11A020123C0470130D5D009F10109F2E70020BDE8F6
:401FC000F88300002DE9FF410C461746227E98466E2A06460A9B01F1430100F0B08012D8632A23D00AD8002A00F0BD80582A40F0CC8084F84520DFF804E257E0642A1ED012
:40200000692A1CD0C1E0732A00F0B18009D86F2A2ED0702A40F0B980226842F0200222603FE0752A24D0782A3BD0AEE01A6804F14205111D1960136884F84230A9E020681B
:402040001A6810F0800F02D0101D186008E010F0400F02F10400186002D0B2F9003000E01368002B3EDA2D225B4284F8432039E020681A6810F0800F02D0101D186007E00C
:4020800010F0400F02F10400186001D0138800E01368227EDFF864E16F2A0CBF08220A221CE07822DFF858E184F845202268186812F0800F00F104051D6003D1550601D587
:4020C000038800E00368D00744BF42F0200222601BB9226822F0200222601022002084F8430002E0DFF814E10A226568002DA8BF2068A560A4BF20F00400206003B965B1A4
:402100000D46B3FBF2F002FB10331EF8033005F8013D03460028F4D100E00D46082A0BD12368DA0708D5236962689A42DEBF302305F8013C05F1FF35491B21612EE0256831
:402140001A6815F0800F606903D0151D1D60136808E015F0400F02F104051D60136801D0188000E01860002323610D4616E01A68111D1960156800212846626800F042F879
:4021800008B1401B6060636804E004F1420584F8422001232361002384F84330CDF800803046214603AA3B46FFF796FE013002D14FF0FF301FE0304639462A462369C04785
:4021C0000130F5D023689B0705D4E068039B9842B8BF18460FE00025E368039A9B1A9D42F3DA3046394604F119020123C0470130DED00135F0E704B0BDE8F0817324000074
:402200008424000010B5C9B202449042034605D01C7801308C42F8D1184610BD002010BD814210B501EB020301D3421E0BE09842FBD28118D21AD34204D013F8014D01F80D
:40224000014DF8E710BD994204D011F8014B02F8014FF8E710BD000030B500293CD051F8042C0B1F1D49002AB8BF9B180A680C4612B95A600B6030BD93420DD219685818AD
:40228000904201BF5A5852181A60426823605A6030BD994203D80A4651680029F9D1146815199D420AD11B682344D0188842136012D10868034413604B680CE002D90C2347
:4022C000036030BD1C681819884201BF08684968001918605960536030BD00BFB481FF1F70B5CC1C24F0030408340C2C38BF0C24002C064603DA0C233360002070BD8C423D
:40230000F9D3204A136810461946A1B10A68121B0ED40B2A03D90A608B188C501FE08B420BBF5A684A6802605A6018BF0B4616E00B464968E9E7144D2B681BB9304600F026
:402340004BF828603046214600F046F8421C0346D1D0C51C25F0030585420AD11C6003F10B001A1D20F00700821A0AD05142995070BD3046E91A00F02FF80130BBD02B46FA
:40238000ECE770BDB481FF1FB081FF1FF8B5074615460E4621B91146BDE8F840FFF7A0BF1AB9FFF759FF2846F8BD00F025F8A8420ED238462946FFF793FF044650B131461D
:4023C0002A46FFF705FC38463146FFF745FF01E03046F8BD2046F8BD38B5064C0023054608462360FDF79AFE431C02D1236803B12B6038BDC081FF1F51F8040C0028BEBFC8
:40240000091851F8043CC018043870470000000025392E36660000000D0A0000035B0040035B004040200000305100404000F051004010000000014000100014014000080C
:4024400000400140000A004C0140000200500140200000006052004038030048060000004300232D302B2000686C4C00656667454647003031323334353637383941424311
:40248000444546003031323334353637383961626364656600000000F8B500BFF8BC08BC9E4670474D00000005020000F8B500BFF8BC08BC9E46704729000000D02400007C
:4024C0000881FF1F80000000400000000000000000000000C881FF1F01FF000000366E01C05D0000180000000000E02E000000000000000000000000000000000000000026
:402500000000000000000000000000006024000000000000000000000000000000000000000000000000000000000000000000000000000000000000000000000000000017
:402540000000000000000000000000002481FF1F00000000000000000000000000000000000000000000000000000000000000000000000000000000000000000000000098
:40258000000000000000000000000000000000000000000000000000000000000000000000000000000000000000000000000000000000000000000000000000000000001B
:4025C00000000000000000000000000000000000000000000000000000000000000000000000000000000000000000000000000000000000000000000000000000000000DB
:40260000000000000000000000000000000000000000000000000000000000000000000000000000000000000000000000000000000000000000000000000000000000009A
:40264000000000000000000000000000000000000000000000000000000000000000000000000000000000000000000000000000000000000000000000000000000000005A
:020000040003F7
:0200000480007A
:400000000365004004040140010501400107014001090140011501406E18014039190140611A01404A1B0140024401400145014003460140034701400248014001490140A8
:40004000014C01400A4D014002500140880F8A728B38B980BF40D904DF012401B401EC10EC1000DC01800222040906D0075509030B440C100EAC112A1344160318141D7352
:400080001F0C200C217322712304241026402A202B083140321F3330358036E0370F39083A803B803F1540124104450B46C047E0482949FF4AFF4BFF4EF04F44500C540162
:4000C000580459045A045B045C115D115F0166C06A406B0280118101820E830685028608870989178A0C8C0C8E139040928094C0982099179A039D10A011A206A4C0A88005
:40010000A904AA40AB01B00FB107B230B310B4C0B508B808BA02C003C640C9FFCA07CBFFCC40CD20CEF0CF05D008D804D904DA04DC11DD01DF01E040E1A8E240E3200040D4
:40014000021003880525060407010B940E100F081010128414401618184019251B081E101F80208021012210232025482680278929202C402F8830103240331035013680CD
:40018000392A3B103D113E0A3F2441084440454046084B044F085210560257105D115F88C0BFC26EC47ECAA4CC9CCEE7D0B2D6F001080433053C060C07C2080209180A8007
:4001C0000C030D440E40111C122313E1143F15FF181C1A231B041C1F1D101E20200821E72318240427E3280C29802C012DC02E8030103138320F34C0351F362C37C03A88CF
:400200003B283E1156025713580459045B045C115D105F018001860189018A02920194019A02A604AE04B101B202B401B604B820BE44BF01C052C103C201C406C6C0C70E8D
:40024000C818C9FFCAFFCBFFCC62CDA0CEF0CF41D00CD418D804D904DA04DB04DC01DD11DF01E640E702E910EA30EB10ED10EE10EF12008001A804060608090A0A020B0469
:400280000D080E040F80108213181620178019091A021B501D401E041F04200421082385250129A02A0630803108321138043A013B903E104508460447A04D404F205628EB
:4002C00059015F016540670869206A806B1070807318880289068B608C018D498E038F08923095289680978099209B209F10A040C077C27FC4AFCA0FCC0FCE2FD070D230AB
:40030000D681D830EC107C01DE01940145089401D001A508B401EC082510C820B510A5081080750488808D04B508C408DE04E008E601EC0810021C02808000004000000099
:40034000007F7F0000000000800040808000800000000000000B0B0000000000000000000000080025001801000000000000000000000000000000000000000000000000E3
:40038000000000000000000000000000000000000000000000000000000000000000000000000000000000000000000000000000000000000000000000000000000000003D
:4003C00000000000000000000000000000000000000000000000000000000000000000000000000000000000000000000000000000000000000000000000000000000000FD
:4004000000000000000000000000000000000000000000000000000000000000000000000000000000000000000000000000000000000000000000000000000000000000BC
:40044000000000000000000000000000000000000000000000000000000000000000000000000000000000000000000000000000000000000000000000000000000000007C
:0200000490006A
:0400000000004005B7
:0200000490105A
:04000000BC90ACAF55
:0200000490303A
:02000000C054EA
:0200000490402A
:4000000000000000000000000000000000000000000000000000000000000000000000000000000000000000000000000000000000000000000000000000000000000000C0
:400040000000000000000000000000000000000000000000000000000000000000000000000000000000000000000000000000000000000000000000000000000000000080
:400080000000000000000000000000000000000000000000000000000000000000000000000000000000000000000000000000000000000000000000000000000000000040
:4000C0000000000000000000000000000000000000000000000000000000000000000000000000000000000000000000000000000000000000000000000000000000000000
:0200000490501A
:0C00000000012E16106900012E24D0BD56
:00000001FF